{
  "_format": "hh-sol-artifact-1",
  "contractName": "MyToken",
  "sourceName": "contracts/MyToken.sol",
  "abi": [
    {
      "inputs": [
        {
          "internalType": "string",
          "name": "name_",
          "type": "string"
        },
        {
          "internalType": "string",
          "name": "symbol_",
          "type": "string"
        },
        {
          "internalType": "uint8",
          "name": "decimals_",
          "type": "uint8"
        },
        {
          "internalType": "uint256",
          "name": "initialSupply",
          "type": "uint256"
        }
      ],
      "stateMutability": "nonpayable",
      "type": "constructor"
    },
    {
      "inputs": [
        {
          "internalType": "address",
          "name": "spender",
          "type": "address"
        },
        {
          "internalType": "uint256",
          "name": "allowance",
          "type": "uint256"
        },
        {
          "internalType": "uint256",
          "name": "needed",
          "type": "uint256"
        }
      ],
      "name": "ERC20InsufficientAllowance",
      "type": "error"
    },
    {
      "inputs": [
        {
          "internalType": "address",
          "name": "sender",
          "type": "address"
        },
        {
          "internalType": "uint256",
          "name": "balance",
          "type": "uint256"
        },
        {
          "internalType": "uint256",
          "name": "needed",
          "type": "uint256"
        }
      ],
      "name": "ERC20InsufficientBalance",
      "type": "error"
    },
    {
      "inputs": [
        {
          "internalType": "address",
          "name": "approver",
          "type": "address"
        }
      ],
      "name": "ERC20InvalidApprover",
      "type": "error"
    },
    {
      "inputs": [
        {
          "internalType": "address",
          "name": "receiver",
          "type": "address"
        }
      ],
      "name": "ERC20InvalidReceiver",
      "type": "error"
    },
    {
      "inputs": [
        {
          "internalType": "address",
          "name": "sender",
          "type": "address"
        }
      ],
      "name": "ERC20InvalidSender",
      "type": "error"
    },
    {
      "inputs": [
        {
          "internalType": "address",
          "name": "spender",
          "type": "address"
        }
      ],
      "name": "ERC20InvalidSpender",
      "type": "error"
    },
    {
      "inputs": [
        {
          "internalType": "address",
          "name": "owner",
          "type": "address"
        }
      ],
      "name": "OwnableInvalidOwner",
      "type": "error"
    },
    {
      "inputs": [
        {
          "internalType": "address",
          "name": "account",
          "type": "address"
        }
      ],
      "name": "OwnableUnauthorizedAccount",
      "type": "error"
    },
    {
      "anonymous": false,
      "inputs": [
        {
          "indexed": true,
          "internalType": "address",
          "name": "owner",
          "type": "address"
        },
        {
          "indexed": true,
          "internalType": "address",
          "name": "spender",
          "type": "address"
        },
        {
          "indexed": false,
          "internalType": "uint256",
          "name": "value",
          "type": "uint256"
        }
      ],
      "name": "Approval",
      "type": "event"
    },
    {
      "anonymous": false,
      "inputs": [
        {
          "indexed": true,
          "internalType": "address",
          "name": "previousOwner",
          "type": "address"
        },
        {
          "indexed": true,
          "internalType": "address",
          "name": "newOwner",
          "type": "address"
        }
      ],
      "name": "OwnershipTransferred",
      "type": "event"
    },
    {
      "anonymous": false,
      "inputs": [
        {
          "indexed": true,
          "internalType": "address",
          "name": "from",
          "type": "address"
        },
        {
          "indexed": true,
          "internalType": "address",
          "name": "to",
          "type": "address"
        },
        {
          "indexed": false,
          "internalType": "uint256",
          "name": "value",
          "type": "uint256"
        }
      ],
      "name": "Transfer",
      "type": "event"
    },
    {
      "inputs": [
        {
          "internalType": "address",
          "name": "owner",
          "type": "address"
        },
        {
          "internalType": "address",
          "name": "spender",
          "type": "address"
        }
      ],
      "name": "allowance",
      "outputs": [
        {
          "internalType": "uint256",
          "name": "",
          "type": "uint256"
        }
      ],
      "stateMutability": "view",
      "type": "function"
    },
    {
      "inputs": [
        {
          "internalType": "address",
          "name": "spender",
          "type": "address"
        },
        {
          "internalType": "uint256",
          "name": "value",
          "type": "uint256"
        }
      ],
      "name": "approve",
      "outputs": [
        {
          "internalType": "bool",
          "name": "",
          "type": "bool"
        }
      ],
      "stateMutability": "nonpayable",
      "type": "function"
    },
    {
      "inputs": [
        {
          "internalType": "address",
          "name": "account",
          "type": "address"
        }
      ],
      "name": "balanceOf",
      "outputs": [
        {
          "internalType": "uint256",
          "name": "",
          "type": "uint256"
        }
      ],
      "stateMutability": "view",
      "type": "function"
    },
    {
      "inputs": [
        {
          "internalType": "uint256",
          "name": "amount",
          "type": "uint256"
        }
      ],
      "name": "burn",
      "outputs": [],
      "stateMutability": "nonpayable",
      "type": "function"
    },
    {
      "inputs": [],
      "name": "decimals",
      "outputs": [
        {
          "internalType": "uint8",
          "name": "",
          "type": "uint8"
        }
      ],
      "stateMutability": "view",
      "type": "function"
    },
    {
      "inputs": [
        {
          "internalType": "address",
          "name": "to",
          "type": "address"
        },
        {
          "internalType": "uint256",
          "name": "amount",
          "type": "uint256"
        }
      ],
      "name": "mintTo",
      "outputs": [],
      "stateMutability": "nonpayable",
      "type": "function"
    },
    {
      "inputs": [],
      "name": "name",
      "outputs": [
        {
          "internalType": "string",
          "name": "",
          "type": "string"
        }
      ],
      "stateMutability": "view",
      "type": "function"
    },
    {
      "inputs": [],
      "name": "owner",
      "outputs": [
        {
          "internalType": "address",
          "name": "",
          "type": "address"
        }
      ],
      "stateMutability": "view",
      "type": "function"
    },
    {
      "inputs": [],
      "name": "renounceOwnership",
      "outputs": [],
      "stateMutability": "nonpayable",
      "type": "function"
    },
    {
      "inputs": [],
      "name": "symbol",
      "outputs": [
        {
          "internalType": "string",
          "name": "",
          "type": "string"
        }
      ],
      "stateMutability": "view",
      "type": "function"
    },
    {
      "inputs": [],
      "name": "totalSupply",
      "outputs": [
        {
          "internalType": "uint256",
          "name": "",
          "type": "uint256"
        }
      ],
      "stateMutability": "view",
      "type": "function"
    },
    {
      "inputs": [
        {
          "internalType": "address",
          "name": "to",
          "type": "address"
        },
        {
          "internalType": "uint256",
          "name": "value",
          "type": "uint256"
        }
      ],
      "name": "transfer",
      "outputs": [
        {
          "internalType": "bool",
          "name": "",
          "type": "bool"
        }
      ],
      "stateMutability": "nonpayable",
      "type": "function"
    },
    {
      "inputs": [
        {
          "internalType": "address",
          "name": "from",
          "type": "address"
        },
        {
          "internalType": "address",
          "name": "to",
          "type": "address"
        },
        {
          "internalType": "uint256",
          "name": "value",
          "type": "uint256"
        }
      ],
      "name": "transferFrom",
      "outputs": [
        {
          "internalType": "bool",
          "name": "",
          "type": "bool"
        }
      ],
      "stateMutability": "nonpayable",
      "type": "function"
    },
    {
      "inputs": [
        {
          "internalType": "address",
          "name": "newOwner",
          "type": "address"
        }
      ],
      "name": "transferOwnership",
      "outputs": [],
      "stateMutability": "nonpayable",
      "type": "function"
    }
  ],
  "bytecode": "0x60a06040523480156200001157600080fd5b5060405162001e7838038062001e788339818101604052810190620000379190620006a0565b33848481600390816200004b919062000991565b5080600490816200005d919062000991565b505050600073ffffffffffffffffffffffffffffffffffffffff168173ffffffffffffffffffffffffffffffffffffffff1603620000d55760006040517f1e4fbdf7000000000000000000000000000000000000000000000000000000008152600401620000cc919062000abd565b60405180910390fd5b620000e6816200011160201b60201c565b508160ff1660808160ff1681525050620001073382620001d760201b60201c565b5050505062000baf565b6000600560009054906101000a900473ffffffffffffffffffffffffffffffffffffffff16905081600560006101000a81548173ffffffffffffffffffffffffffffffffffffffff021916908373ffffffffffffffffffffffffffffffffffffffff1602179055508173ffffffffffffffffffffffffffffffffffffffff168173ffffffffffffffffffffffffffffffffffffffff167f8be0079c531659141344cd1fd0a4f28419497f9722a3daafe3b4186f6b6457e060405160405180910390a35050565b600073ffffffffffffffffffffffffffffffffffffffff168273ffffffffffffffffffffffffffffffffffffffff16036200024c5760006040517fec442f0500000000000000000000000000000000000000000000000000000000815260040162000243919062000abd565b60405180910390fd5b62000260600083836200026460201b60201c565b5050565b600073ffffffffffffffffffffffffffffffffffffffff168373ffffffffffffffffffffffffffffffffffffffff1603620002ba578060026000828254620002ad919062000b09565b9250508190555062000390565b60008060008573ffffffffffffffffffffffffffffffffffffffff1673ffffffffffffffffffffffffffffffffffffffff1681526020019081526020016000205490508181101562000349578381836040517fe450d38c000000000000000000000000000000000000000000000000000000008152600401620003409392919062000b55565b60405180910390fd5b8181036000808673ffffffffffffffffffffffffffffffffffffffff1673ffffffffffffffffffffffffffffffffffffffff16815260200190815260200160002081905550505b600073ffffffffffffffffffffffffffffffffffffffff168273ffffffffffffffffffffffffffffffffffffffff1603620003db578060026000828254039250508190555062000428565b806000808473ffffffffffffffffffffffffffffffffffffffff1673ffffffffffffffffffffffffffffffffffffffff168152602001908152602001600020600082825401925050819055505b8173ffffffffffffffffffffffffffffffffffffffff168373ffffffffffffffffffffffffffffffffffffffff167fddf252ad1be2c89b69c2b068fc378daa952ba7f163c4a11628f55a4df523b3ef8360405162000487919062000b92565b60405180910390a3505050565b6000604051905090565b600080fd5b600080fd5b600080fd5b600080fd5b6000601f19601f8301169050919050565b7f4e487b7100000000000000000000000000000000000000000000000000000000600052604160045260246000fd5b620004fd82620004b2565b810181811067ffffffffffffffff821117156200051f576200051e620004c3565b5b80604052505050565b60006200053462000494565b9050620005428282620004f2565b919050565b600067ffffffffffffffff821115620005655762000564620004c3565b5b6200057082620004b2565b9050602081019050919050565b60005b838110156200059d57808201518184015260208101905062000580565b60008484015250505050565b6000620005c0620005ba8462000547565b62000528565b905082815260208101848484011115620005df57620005de620004ad565b5b620005ec8482856200057d565b509392505050565b600082601f8301126200060c576200060b620004a8565b5b81516200061e848260208601620005a9565b91505092915050565b600060ff82169050919050565b6200063f8162000627565b81146200064b57600080fd5b50565b6000815190506200065f8162000634565b92915050565b6000819050919050565b6200067a8162000665565b81146200068657600080fd5b50565b6000815190506200069a816200066f565b92915050565b60008060008060808587031215620006bd57620006bc6200049e565b5b600085015167ffffffffffffffff811115620006de57620006dd620004a3565b5b620006ec87828801620005f4565b945050602085015167ffffffffffffffff81111562000710576200070f620004a3565b5b6200071e87828801620005f4565b935050604062000731878288016200064e565b9250506060620007448782880162000689565b91505092959194509250565b600081519050919050565b7f4e487b7100000000000000000000000000000000000000000000000000000000600052602260045260246000fd5b60006002820490506001821680620007a357607f821691505b602082108103620007b957620007b86200075b565b5b50919050565b60008190508160005260206000209050919050565b60006020601f8301049050919050565b600082821b905092915050565b600060088302620008237fffffffffffffffffffffffffffffffffffffffffffffffffffffffffffffffff82620007e4565b6200082f8683620007e4565b95508019841693508086168417925050509392505050565b6000819050919050565b6000620008726200086c620008668462000665565b62000847565b62000665565b9050919050565b6000819050919050565b6200088e8362000851565b620008a66200089d8262000879565b848454620007f1565b825550505050565b600090565b620008bd620008ae565b620008ca81848462000883565b505050565b5b81811015620008f257620008e6600082620008b3565b600181019050620008d0565b5050565b601f82111562000941576200090b81620007bf565b6200091684620007d4565b8101602085101562000926578190505b6200093e6200093585620007d4565b830182620008cf565b50505b505050565b600082821c905092915050565b6000620009666000198460080262000946565b1980831691505092915050565b600062000981838362000953565b9150826002028217905092915050565b6200099c8262000750565b67ffffffffffffffff811115620009b857620009b7620004c3565b5b620009c482546200078a565b620009d1828285620008f6565b600060209050601f83116001811462000a095760008415620009f4578287015190505b62000a00858262000973565b86555062000a70565b601f19841662000a1986620007bf565b60005b8281101562000a435784890151825560018201915060208501945060208101905062000a1c565b8683101562000a63578489015162000a5f601f89168262000953565b8355505b6001600288020188555050505b505050505050565b600073ffffffffffffffffffffffffffffffffffffffff82169050919050565b600062000aa58262000a78565b9050919050565b62000ab78162000a98565b82525050565b600060208201905062000ad4600083018462000aac565b92915050565b7f4e487b7100000000000000000000000000000000000000000000000000000000600052601160045260246000fd5b600062000b168262000665565b915062000b238362000665565b925082820190508082111562000b3e5762000b3d62000ada565b5b92915050565b62000b4f8162000665565b82525050565b600060608201905062000b6c600083018662000aac565b62000b7b602083018562000b44565b62000b8a604083018462000b44565b949350505050565b600060208201905062000ba9600083018462000b44565b92915050565b6080516112ad62000bcb60003960006103c501526112ad6000f3fe608060405234801561001057600080fd5b50600436106100ea5760003560e01c806370a082311161008c57806395d89b411161006657806395d89b4114610239578063a9059cbb14610257578063dd62ed3e14610287578063f2fde38b146102b7576100ea565b806370a08231146101e1578063715018a6146102115780638da5cb5b1461021b576100ea565b806323b872dd116100c857806323b872dd1461015b578063313ce5671461018b57806342966c68146101a9578063449a52f8146101c5576100ea565b806306fdde03146100ef578063095ea7b31461010d57806318160ddd1461013d575b600080fd5b6100f76102d3565b6040516101049190610ed4565b60405180910390f35b61012760048036038101906101229190610f8f565b610365565b6040516101349190610fea565b60405180910390f35b610145610388565b6040516101529190611014565b60405180910390f35b6101756004803603810190610170919061102f565b610392565b6040516101829190610fea565b60405180910390f35b6101936103c1565b6040516101a0919061109e565b60405180910390f35b6101c360048036038101906101be91906110b9565b6103e9565b005b6101df60048036038101906101da9190610f8f565b6103f6565b005b6101fb60048036038101906101f691906110e6565b61040c565b6040516102089190611014565b60405180910390f35b610219610454565b005b610223610468565b6040516102309190611122565b60405180910390f35b610241610492565b60405161024e9190610ed4565b60405180910390f35b610271600480360381019061026c9190610f8f565b610524565b60405161027e9190610fea565b60405180910390f35b6102a1600480360381019061029c919061113d565b610547565b6040516102ae9190611014565b60405180910390f35b6102d160048036038101906102cc91906110e6565b6105ce565b005b6060600380546102e2906111ac565b80601f016020809104026020016040519081016040528092919081815260200182805461030e906111ac565b801561035b5780601f106103305761010080835404028352916020019161035b565b820191906000526020600020905b81548152906001019060200180831161033e57829003601f168201915b5050505050905090565b600080610370610654565b905061037d81858561065c565b600191505092915050565b6000600254905090565b60008061039d610654565b90506103aa85828561066e565b6103b5858585610703565b60019150509392505050565b60007f0000000000000000000000000000000000000000000000000000000000000000905090565b6103f333826107f7565b50565b6103fe610879565b6104088282610900565b5050565b60008060008373ffffffffffffffffffffffffffffffffffffffff1673ffffffffffffffffffffffffffffffffffffffff168152602001908152602001600020549050919050565b61045c610879565b6104666000610982565b565b6000600560009054906101000a900473ffffffffffffffffffffffffffffffffffffffff16905090565b6060600480546104a1906111ac565b80601f01602080910402602001604051908101604052809291908181526020018280546104cd906111ac565b801561051a5780601f106104ef5761010080835404028352916020019161051a565b820191906000526020600020905b8154815290600101906020018083116104fd57829003601f168201915b5050505050905090565b60008061052f610654565b905061053c818585610703565b600191505092915050565b6000600160008473ffffffffffffffffffffffffffffffffffffffff1673ffffffffffffffffffffffffffffffffffffffff16815260200190815260200160002060008373ffffffffffffffffffffffffffffffffffffffff1673ffffffffffffffffffffffffffffffffffffffff16815260200190815260200160002054905092915050565b6105d6610879565b600073ffffffffffffffffffffffffffffffffffffffff168173ffffffffffffffffffffffffffffffffffffffff16036106485760006040517f1e4fbdf700000000000000000000000000000000000000000000000000000000815260040161063f9190611122565b60405180910390fd5b61065181610982565b50565b600033905090565b6106698383836001610a48565b505050565b600061067a8484610547565b90507fffffffffffffffffffffffffffffffffffffffffffffffffffffffffffffffff8110156106fd57818110156106ed578281836040517ffb8f41b20000000000000000000000000000000000000000000000000000000081526004016106e4939291906111dd565b60405180910390fd5b6106fc84848484036000610a48565b5b50505050565b600073ffffffffffffffffffffffffffffffffffffffff168373ffffffffffffffffffffffffffffffffffffffff16036107755760006040517f96c6fd1e00000000000000000000000000000000000000000000000000000000815260040161076c9190611122565b60405180910390fd5b600073ffffffffffffffffffffffffffffffffffffffff168273ffffffffffffffffffffffffffffffffffffffff16036107e75760006040517fec442f050000000000000000000000000000000000000000000000000000000081526004016107de9190611122565b60405180910390fd5b6107f2838383610c1f565b505050565b600073ffffffffffffffffffffffffffffffffffffffff168273ffffffffffffffffffffffffffffffffffffffff16036108695760006040517f96c6fd1e0000000000000000000000000000000000000000000000000000000081526004016108609190611122565b60405180910390fd5b61087582600083610c1f565b5050565b610881610654565b73ffffffffffffffffffffffffffffffffffffffff1661089f610468565b73ffffffffffffffffffffffffffffffffffffffff16146108fe576108c2610654565b6040517f118cdaa70000000000000000000000000000000000000000000000000000000081526004016108f59190611122565b60405180910390fd5b565b600073ffffffffffffffffffffffffffffffffffffffff168273ffffffffffffffffffffffffffffffffffffffff16036109725760006040517fec442f050000000000000000000000000000000000000000000000000000000081526004016109699190611122565b60405180910390fd5b61097e60008383610c1f565b5050565b6000600560009054906101000a900473ffffffffffffffffffffffffffffffffffffffff16905081600560006101000a81548173ffffffffffffffffffffffffffffffffffffffff021916908373ffffffffffffffffffffffffffffffffffffffff1602179055508173ffffffffffffffffffffffffffffffffffffffff168173ffffffffffffffffffffffffffffffffffffffff167f8be0079c531659141344cd1fd0a4f28419497f9722a3daafe3b4186f6b6457e060405160405180910390a35050565b600073ffffffffffffffffffffffffffffffffffffffff168473ffffffffffffffffffffffffffffffffffffffff1603610aba5760006040517fe602df05000000000000000000000000000000000000000000000000000000008152600401610ab19190611122565b60405180910390fd5b600073ffffffffffffffffffffffffffffffffffffffff168373ffffffffffffffffffffffffffffffffffffffff1603610b2c5760006040517f94280d62000000000000000000000000000000000000000000000000000000008152600401610b239190611122565b60405180910390fd5b81600160008673ffffffffffffffffffffffffffffffffffffffff1673ffffffffffffffffffffffffffffffffffffffff16815260200190815260200160002060008573ffffffffffffffffffffffffffffffffffffffff1673ffffffffffffffffffffffffffffffffffffffff168152602001908152602001600020819055508015610c19578273ffffffffffffffffffffffffffffffffffffffff168473ffffffffffffffffffffffffffffffffffffffff167f8c5be1e5ebec7d5bd14f71427d1e84f3dd0314c0f7b2291e5b200ac8c7c3b92584604051610c109190611014565b60405180910390a35b50505050565b600073ffffffffffffffffffffffffffffffffffffffff168373ffffffffffffffffffffffffffffffffffffffff1603610c71578060026000828254610c659190611243565b92505081905550610d44565b60008060008573ffffffffffffffffffffffffffffffffffffffff1673ffffffffffffffffffffffffffffffffffffffff16815260200190815260200160002054905081811015610cfd578381836040517fe450d38c000000000000000000000000000000000000000000000000000000008152600401610cf4939291906111dd565b60405180910390fd5b8181036000808673ffffffffffffffffffffffffffffffffffffffff1673ffffffffffffffffffffffffffffffffffffffff16815260200190815260200160002081905550505b600073ffffffffffffffffffffffffffffffffffffffff168273ffffffffffffffffffffffffffffffffffffffff1603610d8d5780600260008282540392505081905550610dda565b806000808473ffffffffffffffffffffffffffffffffffffffff1673ffffffffffffffffffffffffffffffffffffffff168152602001908152602001600020600082825401925050819055505b8173ffffffffffffffffffffffffffffffffffffffff168373ffffffffffffffffffffffffffffffffffffffff167fddf252ad1be2c89b69c2b068fc378daa952ba7f163c4a11628f55a4df523b3ef83604051610e379190611014565b60405180910390a3505050565b600081519050919050565b600082825260208201905092915050565b60005b83811015610e7e578082015181840152602081019050610e63565b60008484015250505050565b6000601f19601f8301169050919050565b6000610ea682610e44565b610eb08185610e4f565b9350610ec0818560208601610e60565b610ec981610e8a565b840191505092915050565b60006020820190508181036000830152610eee8184610e9b565b905092915050565b600080fd5b600073ffffffffffffffffffffffffffffffffffffffff82169050919050565b6000610f2682610efb565b9050919050565b610f3681610f1b565b8114610f4157600080fd5b50565b600081359050610f5381610f2d565b92915050565b6000819050919050565b610f6c81610f59565b8114610f7757600080fd5b50565b600081359050610f8981610f63565b92915050565b60008060408385031215610fa657610fa5610ef6565b5b6000610fb485828601610f44565b9250506020610fc585828601610f7a565b9150509250929050565b60008115159050919050565b610fe481610fcf565b82525050565b6000602082019050610fff6000830184610fdb565b92915050565b61100e81610f59565b82525050565b60006020820190506110296000830184611005565b92915050565b60008060006060848603121561104857611047610ef6565b5b600061105686828701610f44565b935050602061106786828701610f44565b925050604061107886828701610f7a565b9150509250925092565b600060ff82169050919050565b61109881611082565b82525050565b60006020820190506110b3600083018461108f565b92915050565b6000602082840312156110cf576110ce610ef6565b5b60006110dd84828501610f7a565b91505092915050565b6000602082840312156110fc576110fb610ef6565b5b600061110a84828501610f44565b91505092915050565b61111c81610f1b565b82525050565b60006020820190506111376000830184611113565b92915050565b6000806040838503121561115457611153610ef6565b5b600061116285828601610f44565b925050602061117385828601610f44565b9150509250929050565b7f4e487b7100000000000000000000000000000000000000000000000000000000600052602260045260246000fd5b600060028204905060018216806111c457607f821691505b6020821081036111d7576111d661117d565b5b50919050565b60006060820190506111f26000830186611113565b6111ff6020830185611005565b61120c6040830184611005565b949350505050565b7f4e487b7100000000000000000000000000000000000000000000000000000000600052601160045260246000fd5b600061124e82610f59565b915061125983610f59565b925082820190508082111561127157611270611214565b5b9291505056fea2646970667358221220f5c53eb526e9be1c64e53fd28bf78f162167fb925f1213a1a18ef32bbdee4e9164736f6c63430008180033",
  "linkReferences": {},
  "deployedLinkReferences": {}
}